{
  "contractName": "UniswapV2Router02",
  "abi": [
    {
      "inputs": [
        {
          "internalType": "address",
          "name": "_factory",
          "type": "address"
        },
        {
          "internalType": "address",
          "name": "_WATP",
          "type": "address"
        }
      ],
      "payable": false,
      "stateMutability": "nonpayable",
      "type": "constructor"
    },
    {
      "payable": true,
      "stateMutability": "payable",
      "type": "fallback"
    },
    {
      "constant": true,
      "inputs": [],
      "name": "WATP",
      "outputs": [
        {
          "internalType": "address",
          "name": "",
          "type": "address"
        }
      ],
      "payable": false,
      "stateMutability": "view",
      "type": "function"
    },
    {
      "constant": true,
      "inputs": [],
      "name": "factory",
      "outputs": [
        {
          "internalType": "address",
          "name": "",
          "type": "address"
        }
      ],
      "payable": false,
      "stateMutability": "view",
      "type": "function"
    },
    {
      "constant": false,
      "inputs": [
        {
          "internalType": "address",
          "name": "tokenA",
          "type": "address"
        },
        {
          "internalType": "address",
          "name": "tokenB",
          "type": "address"
        },
        {
          "internalType": "uint256",
          "name": "amountADesired",
          "type": "uint256"
        },
        {
          "internalType": "uint256",
          "name": "amountBDesired",
          "type": "uint256"
        },
        {
          "internalType": "uint256",
          "name": "amountAMin",
          "type": "uint256"
        },
        {
          "internalType": "uint256",
          "name": "amountBMin",
          "type": "uint256"
        },
        {
          "internalType": "address",
          "name": "to",
          "type": "address"
        },
        {
          "internalType": "uint256",
          "name": "deadline",
          "type": "uint256"
        }
      ],
      "name": "addLiquidity",
      "outputs": [
        {
          "internalType": "uint256",
          "name": "amountA",
          "type": "uint256"
        },
        {
          "internalType": "uint256",
          "name": "amountB",
          "type": "uint256"
        },
        {
          "internalType": "uint256",
          "name": "liquidity",
          "type": "uint256"
        }
      ],
      "payable": false,
      "stateMutability": "nonpayable",
      "type": "function"
    },
    {
      "constant": false,
      "inputs": [
        {
          "internalType": "address",
          "name": "token",
          "type": "address"
        },
        {
          "internalType": "uint256",
          "name": "amountTokenDesired",
          "type": "uint256"
        },
        {
          "internalType": "uint256",
          "name": "amountTokenMin",
          "type": "uint256"
        },
        {
          "internalType": "uint256",
          "name": "amountATPMin",
          "type": "uint256"
        },
        {
          "internalType": "address",
          "name": "to",
          "type": "address"
        },
        {
          "internalType": "uint256",
          "name": "deadline",
          "type": "uint256"
        }
      ],
      "name": "addLiquidityATP",
      "outputs": [
        {
          "internalType": "uint256",
          "name": "amountToken",
          "type": "uint256"
        },
        {
          "internalType": "uint256",
          "name": "amountATP",
          "type": "uint256"
        },
        {
          "internalType": "uint256",
          "name": "liquidity",
          "type": "uint256"
        }
      ],
      "payable": true,
      "stateMutability": "payable",
      "type": "function"
    },
    {
      "constant": false,
      "inputs": [
        {
          "internalType": "address",
          "name": "tokenA",
          "type": "address"
        },
        {
          "internalType": "address",
          "name": "tokenB",
          "type": "address"
        },
        {
          "internalType": "uint256",
          "name": "liquidity",
          "type": "uint256"
        },
        {
          "internalType": "uint256",
          "name": "amountAMin",
          "type": "uint256"
        },
        {
          "internalType": "uint256",
          "name": "amountBMin",
          "type": "uint256"
        },
        {
          "internalType": "address",
          "name": "to",
          "type": "address"
        },
        {
          "internalType": "uint256",
          "name": "deadline",
          "type": "uint256"
        }
      ],
      "name": "removeLiquidity",
      "outputs": [
        {
          "internalType": "uint256",
          "name": "amountA",
          "type": "uint256"
        },
        {
          "internalType": "uint256",
          "name": "amountB",
          "type": "uint256"
        }
      ],
      "payable": false,
      "stateMutability": "nonpayable",
      "type": "function"
    },
    {
      "constant": false,
      "inputs": [
        {
          "internalType": "address",
          "name": "token",
          "type": "address"
        },
        {
          "internalType": "uint256",
          "name": "liquidity",
          "type": "uint256"
        },
        {
          "internalType": "uint256",
          "name": "amountTokenMin",
          "type": "uint256"
        },
        {
          "internalType": "uint256",
          "name": "amountATPMin",
          "type": "uint256"
        },
        {
          "internalType": "address",
          "name": "to",
          "type": "address"
        },
        {
          "internalType": "uint256",
          "name": "deadline",
          "type": "uint256"
        }
      ],
      "name": "removeLiquidityATP",
      "outputs": [
        {
          "internalType": "uint256",
          "name": "amountToken",
          "type": "uint256"
        },
        {
          "internalType": "uint256",
          "name": "amountATP",
          "type": "uint256"
        }
      ],
      "payable": false,
      "stateMutability": "nonpayable",
      "type": "function"
    },
    {
      "constant": false,
      "inputs": [
        {
          "internalType": "address",
          "name": "tokenA",
          "type": "address"
        },
        {
          "internalType": "address",
          "name": "tokenB",
          "type": "address"
        },
        {
          "internalType": "uint256",
          "name": "liquidity",
          "type": "uint256"
        },
        {
          "internalType": "uint256",
          "name": "amountAMin",
          "type": "uint256"
        },
        {
          "internalType": "uint256",
          "name": "amountBMin",
          "type": "uint256"
        },
        {
          "internalType": "address",
          "name": "to",
          "type": "address"
        },
        {
          "internalType": "uint256",
          "name": "deadline",
          "type": "uint256"
        },
        {
          "internalType": "bool",
          "name": "approveMax",
          "type": "bool"
        },
        {
          "internalType": "uint8",
          "name": "v",
          "type": "uint8"
        },
        {
          "internalType": "bytes32",
          "name": "r",
          "type": "bytes32"
        },
        {
          "internalType": "bytes32",
          "name": "s",
          "type": "bytes32"
        }
      ],
      "name": "removeLiquidityWithPermit",
      "outputs": [
        {
          "internalType": "uint256",
          "name": "amountA",
          "type": "uint256"
        },
        {
          "internalType": "uint256",
          "name": "amountB",
          "type": "uint256"
        }
      ],
      "payable": false,
      "stateMutability": "nonpayable",
      "type": "function"
    },
    {
      "constant": false,
      "inputs": [
        {
          "internalType": "address",
          "name": "token",
          "type": "address"
        },
        {
          "internalType": "uint256",
          "name": "liquidity",
          "type": "uint256"
        },
        {
          "internalType": "uint256",
          "name": "amountTokenMin",
          "type": "uint256"
        },
        {
          "internalType": "uint256",
          "name": "amountATPMin",
          "type": "uint256"
        },
        {
          "internalType": "address",
          "name": "to",
          "type": "address"
        },
        {
          "internalType": "uint256",
          "name": "deadline",
          "type": "uint256"
        },
        {
          "internalType": "bool",
          "name": "approveMax",
          "type": "bool"
        },
        {
          "internalType": "uint8",
          "name": "v",
          "type": "uint8"
        },
        {
          "internalType": "bytes32",
          "name": "r",
          "type": "bytes32"
        },
        {
          "internalType": "bytes32",
          "name": "s",
          "type": "bytes32"
        }
      ],
      "name": "removeLiquidityATPWithPermit",
      "outputs": [
        {
          "internalType": "uint256",
          "name": "amountToken",
          "type": "uint256"
        },
        {
          "internalType": "uint256",
          "name": "amountATP",
          "type": "uint256"
        }
      ],
      "payable": false,
      "stateMutability": "nonpayable",
      "type": "function"
    },
    {
      "constant": false,
      "inputs": [
        {
          "internalType": "uint256",
          "name": "amountIn",
          "type": "uint256"
        },
        {
          "internalType": "uint256",
          "name": "amountOutMin",
          "type": "uint256"
        },
        {
          "internalType": "address[]",
          "name": "path",
          "type": "address[]"
        },
        {
          "internalType": "address",
          "name": "to",
          "type": "address"
        },
        {
          "internalType": "uint256",
          "name": "deadline",
          "type": "uint256"
        }
      ],
      "name": "swapExactTokensForTokens",
      "outputs": [
        {
          "internalType": "uint256[]",
          "name": "amounts",
          "type": "uint256[]"
        }
      ],
      "payable": false,
      "stateMutability": "nonpayable",
      "type": "function"
    },
    {
      "constant": false,
      "inputs": [
        {
          "internalType": "uint256",
          "name": "amountOut",
          "type": "uint256"
        },
        {
          "internalType": "uint256",
          "name": "amountInMax",
          "type": "uint256"
        },
        {
          "internalType": "address[]",
          "name": "path",
          "type": "address[]"
        },
        {
          "internalType": "address",
          "name": "to",
          "type": "address"
        },
        {
          "internalType": "uint256",
          "name": "deadline",
          "type": "uint256"
        }
      ],
      "name": "swapTokensForExactTokens",
      "outputs": [
        {
          "internalType": "uint256[]",
          "name": "amounts",
          "type": "uint256[]"
        }
      ],
      "payable": false,
      "stateMutability": "nonpayable",
      "type": "function"
    },
    {
      "constant": false,
      "inputs": [
        {
          "internalType": "uint256",
          "name": "amountOutMin",
          "type": "uint256"
        },
        {
          "internalType": "address[]",
          "name": "path",
          "type": "address[]"
        },
        {
          "internalType": "address",
          "name": "to",
          "type": "address"
        },
        {
          "internalType": "uint256",
          "name": "deadline",
          "type": "uint256"
        }
      ],
      "name": "swapExactATPForTokens",
      "outputs": [
        {
          "internalType": "uint256[]",
          "name": "amounts",
          "type": "uint256[]"
        }
      ],
      "payable": true,
      "stateMutability": "payable",
      "type": "function"
    },
    {
      "constant": false,
      "inputs": [
        {
          "internalType": "uint256",
          "name": "amountOut",
          "type": "uint256"
        },
        {
          "internalType": "uint256",
          "name": "amountInMax",
          "type": "uint256"
        },
        {
          "internalType": "address[]",
          "name": "path",
          "type": "address[]"
        },
        {
          "internalType": "address",
          "name": "to",
          "type": "address"
        },
        {
          "internalType": "uint256",
          "name": "deadline",
          "type": "uint256"
        }
      ],
      "name": "swapTokensForExactATP",
      "outputs": [
        {
          "internalType": "uint256[]",
          "name": "amounts",
          "type": "uint256[]"
        }
      ],
      "payable": false,
      "stateMutability": "nonpayable",
      "type": "function"
    },
    {
      "constant": false,
      "inputs": [
        {
          "internalType": "uint256",
          "name": "amountIn",
          "type": "uint256"
        },
        {
          "internalType": "uint256",
          "name": "amountOutMin",
          "type": "uint256"
        },
        {
          "internalType": "address[]",
          "name": "path",
          "type": "address[]"
        },
        {
          "internalType": "address",
          "name": "to",
          "type": "address"
        },
        {
          "internalType": "uint256",
          "name": "deadline",
          "type": "uint256"
        }
      ],
      "name": "swapExactTokensForATP",
      "outputs": [
        {
          "internalType": "uint256[]",
          "name": "amounts",
          "type": "uint256[]"
        }
      ],
      "payable": false,
      "stateMutability": "nonpayable",
      "type": "function"
    },
    {
      "constant": false,
      "inputs": [
        {
          "internalType": "uint256",
          "name": "amountOut",
          "type": "uint256"
        },
        {
          "internalType": "address[]",
          "name": "path",
          "type": "address[]"
        },
        {
          "internalType": "address",
          "name": "to",
          "type": "address"
        },
        {
          "internalType": "uint256",
          "name": "deadline",
          "type": "uint256"
        }
      ],
      "name": "swapATPForExactTokens",
      "outputs": [
        {
          "internalType": "uint256[]",
          "name": "amounts",
          "type": "uint256[]"
        }
      ],
      "payable": true,
      "stateMutability": "payable",
      "type": "function"
    },
    {
      "constant": true,
      "inputs": [
        {
          "internalType": "uint256",
          "name": "amountA",
          "type": "uint256"
        },
        {
          "internalType": "uint256",
          "name": "reserveA",
          "type": "uint256"
        },
        {
          "internalType": "uint256",
          "name": "reserveB",
          "type": "uint256"
        }
      ],
      "name": "quote",
      "outputs": [
        {
          "internalType": "uint256",
          "name": "amountB",
          "type": "uint256"
        }
      ],
      "payable": false,
      "stateMutability": "pure",
      "type": "function"
    },
    {
      "constant": true,
      "inputs": [
        {
          "internalType": "uint256",
          "name": "amountIn",
          "type": "uint256"
        },
        {
          "internalType": "uint256",
          "name": "reserveIn",
          "type": "uint256"
        },
        {
          "internalType": "uint256",
          "name": "reserveOut",
          "type": "uint256"
        }
      ],
      "name": "getAmountOut",
      "outputs": [
        {
          "internalType": "uint256",
          "name": "amountOut",
          "type": "uint256"
        }
      ],
      "payable": false,
      "stateMutability": "pure",
      "type": "function"
    },
    {
      "constant": true,
      "inputs": [
        {
          "internalType": "uint256",
          "name": "amountOut",
          "type": "uint256"
        },
        {
          "internalType": "uint256",
          "name": "reserveIn",
          "type": "uint256"
        },
        {
          "internalType": "uint256",
          "name": "reserveOut",
          "type": "uint256"
        }
      ],
      "name": "getAmountIn",
      "outputs": [
        {
          "internalType": "uint256",
          "name": "amountIn",
          "type": "uint256"
        }
      ],
      "payable": false,
      "stateMutability": "pure",
      "type": "function"
    },
    {
      "constant": true,
      "inputs": [
        {
          "internalType": "uint256",
          "name": "amountIn",
          "type": "uint256"
        },
        {
          "internalType": "address[]",
          "name": "path",
          "type": "address[]"
        }
      ],
      "name": "getAmountsOut",
      "outputs": [
        {
          "internalType": "uint256[]",
          "name": "amounts",
          "type": "uint256[]"
        }
      ],
      "payable": false,
      "stateMutability": "view",
      "type": "function"
    },
    {
      "constant": true,
      "inputs": [
        {
          "internalType": "uint256",
          "name": "amountOut",
          "type": "uint256"
        },
        {
          "internalType": "address[]",
          "name": "path",
          "type": "address[]"
        }
      ],
      "name": "getAmountsIn",
      "outputs": [
        {
          "internalType": "uint256[]",
          "name": "amounts",
          "type": "uint256[]"
        }
      ],
      "payable": false,
      "stateMutability": "view",
      "type": "function"
    }
  ],
  "bytecode": "0x608060405234801561001057600080fd5b506040516131b83803806131b88339818101604052604081101561003357600080fd5b508051602090910151600080546001600160a01b039384166001600160a01b0319918216179091556001805493909216921691909117905561313e8061007a6000396000f3fe6080604052600436106101145760003560e01c8063ad2e7d3e116100a0578063d22a847b11610064578063d22a847b146106f2578063df74c11a14610776578063e8e33700146107fa578063ec79687d1461085c578063f90b26d5146108f257610114565b8063ad2e7d3e14610522578063ad615dec14610595578063baa2abde146105cb578063c45a015514610628578063d06ca61f1461063d57610114565b806338ed1739116100e757806338ed173914610372578063522ec87b1461040857806385f8c2591461012a5780638803dbee146104395780639ff8e87d146104cf57610114565b8063054d50d41461012a5780631f00ca74146101725780632195995c14610277578063386169991461030e575b6001546001600160a01b0316331461012857fe5b005b34801561013657600080fd5b506101606004803603606081101561014d57600080fd5b5080359060208101359060400135610988565b60408051918252519081900360200190f35b34801561017e57600080fd5b506102276004803603604081101561019557600080fd5b81359190810190604081016020820135600160201b8111156101b657600080fd5b8201836020820111156101c857600080fd5b803590602001918460208302840111600160201b831117156101e957600080fd5b91908080602002602001604051908101604052809392919081815260200183836020028082843760009201919091525092955061099d945050505050565b60408051602080825283518183015283519192839290830191858101910280838360005b8381101561026357818101518382015260200161024b565b505050509050019250505060405180910390f35b34801561028357600080fd5b506102f5600480360361016081101561029b57600080fd5b506001600160a01b038135811691602081013582169160408201359160608101359160808201359160a08101359091169060c08101359060e081013515159060ff61010082013516906101208101359061014001356109c0565b6040805192835260208301919091528051918290030190f35b610354600480360360c081101561032457600080fd5b506001600160a01b0381358116916020810135916040820135916060810135916080820135169060a00135610aa6565b60408051938452602084019290925282820152519081900360600190f35b34801561037e57600080fd5b50610227600480360360a081101561039557600080fd5b813591602081013591810190606081016040820135600160201b8111156103bb57600080fd5b8201836020820111156103cd57600080fd5b803590602001918460208302840111600160201b831117156103ee57600080fd5b91935091506001600160a01b038135169060200135610cd5565b34801561041457600080fd5b5061041d610e99565b604080516001600160a01b039092168252519081900360200190f35b34801561044557600080fd5b50610227600480360360a081101561045c57600080fd5b813591602081013591810190606081016040820135600160201b81111561048257600080fd5b82018360208201111561049457600080fd5b803590602001918460208302840111600160201b831117156104b557600080fd5b91935091506001600160a01b038135169060200135610ea8565b3480156104db57600080fd5b506102f5600480360360c08110156104f257600080fd5b506001600160a01b0381358116916020810135916040820135916060810135916080820135169060a00135610f8d565b34801561052e57600080fd5b506102f5600480360361014081101561054657600080fd5b506001600160a01b0381358116916020810135916040820135916060810135916080820135169060a08101359060c081013515159060ff60e0820135169061010081013590610120013561107b565b3480156105a157600080fd5b50610160600480360360608110156105b857600080fd5b5080359060208101359060400135611178565b3480156105d757600080fd5b506102f5600480360360e08110156105ee57600080fd5b506001600160a01b038135811691602081013582169160408201359160608101359160808201359160a08101359091169060c00135611185565b34801561063457600080fd5b5061041d6113b4565b34801561064957600080fd5b506102276004803603604081101561066057600080fd5b81359190810190604081016020820135600160201b81111561068157600080fd5b82018360208201111561069357600080fd5b803590602001918460208302840111600160201b831117156106b457600080fd5b9190808060200260200160405190810160405280939291908181526020018383602002808284376000920191909152509295506113c3945050505050565b6102276004803603608081101561070857600080fd5b81359190810190604081016020820135600160201b81111561072957600080fd5b82018360208201111561073b57600080fd5b803590602001918460208302840111600160201b8311171561075c57600080fd5b91935091506001600160a01b0381351690602001356113dd565b6102276004803603608081101561078c57600080fd5b81359190810190604081016020820135600160201b8111156107ad57600080fd5b8201836020820111156107bf57600080fd5b803590602001918460208302840111600160201b831117156107e057600080fd5b91935091506001600160a01b0381351690602001356116cb565b34801561080657600080fd5b50610354600480360361010081101561081e57600080fd5b506001600160a01b038135811691602081013582169160408201359160608101359160808201359160a08101359160c0820135169060e001356119cb565b34801561086857600080fd5b50610227600480360360a081101561087f57600080fd5b813591602081013591810190606081016040820135600160201b8111156108a557600080fd5b8201836020820111156108b757600080fd5b803590602001918460208302840111600160201b831117156108d857600080fd5b91935091506001600160a01b038135169060200135611af4565b3480156108fe57600080fd5b50610227600480360360a081101561091557600080fd5b813591602081013591810190606081016040820135600160201b81111561093b57600080fd5b82018360208201111561094d57600080fd5b803590602001918460208302840111600160201b8311171561096e57600080fd5b91935091506001600160a01b038135169060200135611d3b565b6000610995848484611e98565b949350505050565b6000546060906109b7906001600160a01b03168484611f88565b90505b92915050565b60008054819081906109dc906001600160a01b03168f8f6120be565b90506000876109eb578c6109ef565b6000195b6040805163d505accf60e01b815233600482015230602482015260448101839052606481018c905260ff8a16608482015260a4810189905260c4810188905290519192506001600160a01b0384169163d505accf9160e48082019260009290919082900301818387803b158015610a6557600080fd5b505af1158015610a79573d6000803e3d6000fd5b50505050610a8c8f8f8f8f8f8f8f611185565b809450819550505050509b509b9950505050505050505050565b60008060008342811015610aef576040805162461bcd60e51b815260206004820152601860248201526000805160206130ea833981519152604482015290519081900360640190fd5b600154610b0a908b906001600160a01b03168b348c8c61217e565b6000805460015493975091955091610b30916001600160a01b03908116918e91166120be565b9050610b3e8b3383886123a0565b600160009054906101000a90046001600160a01b03166001600160a01b031663d0e30db0856040518263ffffffff1660e01b81526004016000604051808303818588803b158015610b8e57600080fd5b505af1158015610ba2573d6000803e3d6000fd5b50506001546040805163a9059cbb60e01b81526001600160a01b038781166004830152602482018b9052915191909216945063a9059cbb9350604480830193506020928290030181600087803b158015610bfb57600080fd5b505af1158015610c0f573d6000803e3d6000fd5b505050506040513d6020811015610c2557600080fd5b5051610c2d57fe5b806001600160a01b0316636a627842886040518263ffffffff1660e01b815260040180826001600160a01b03166001600160a01b03168152602001915050602060405180830381600087803b158015610c8557600080fd5b505af1158015610c99573d6000803e3d6000fd5b505050506040513d6020811015610caf57600080fd5b5051925034841015610cc757610cc7338534036124fd565b505096509650969350505050565b60608142811015610d1b576040805162461bcd60e51b815260206004820152601860248201526000805160206130ea833981519152604482015290519081900360640190fd5b6000546040805160208089028281018201909352888252610d65936001600160a01b0316928c92918b918b918291908501908490808284376000920191909152506125f592505050565b91508682600184510381518110610d7857fe5b60200260200101511015610dbd5760405162461bcd60e51b815260040180806020018281038252602b815260200180613070602b913960400191505060405180910390fd5b610e4f86866000818110610dcd57fe5b905060200201356001600160a01b031633610e356000809054906101000a90046001600160a01b03168a8a6000818110610e0357fe5b905060200201356001600160a01b03168b8b6001818110610e2057fe5b905060200201356001600160a01b03166120be565b85600081518110610e4257fe5b60200260200101516123a0565b610e8e82878780806020026020016040519081016040528093929190818152602001838360200280828437600092019190915250899250612715915050565b509695505050505050565b6001546001600160a01b031681565b60608142811015610eee576040805162461bcd60e51b815260206004820152601860248201526000805160206130ea833981519152604482015290519081900360640190fd5b6000546040805160208089028281018201909352888252610f38936001600160a01b0316928c92918b918b91829190850190849080828437600092019190915250611f8892505050565b91508682600081518110610f4857fe5b60200260200101511115610dbd5760405162461bcd60e51b81526004018080602001828103825260278152602001806130036027913960400191505060405180910390fd5b6000808242811015610fd4576040805162461bcd60e51b815260206004820152601860248201526000805160206130ea833981519152604482015290519081900360640190fd5b600154610ff0908a906001600160a01b03168a8a8a308a611185565b9093509150611000898685612938565b60015460408051632e1a7d4d60e01b81526004810185905290516001600160a01b0390921691632e1a7d4d9160248082019260009290919082900301818387803b15801561104d57600080fd5b505af1158015611061573d6000803e3d6000fd5b5050505061106f85836124fd565b50965096945050505050565b60008060006110b46000809054906101000a90046001600160a01b03168e600160009054906101000a90046001600160a01b03166120be565b90506000876110c3578c6110c7565b6000195b6040805163d505accf60e01b815233600482015230602482015260448101839052606481018c905260ff8a16608482015260a4810189905260c4810188905290519192506001600160a01b0384169163d505accf9160e48082019260009290919082900301818387803b15801561113d57600080fd5b505af1158015611151573d6000803e3d6000fd5b505050506111638e8e8e8e8e8e610f8d565b909f909e509c50505050505050505050505050565b6000610995848484612aa2565b60008082428110156111cc576040805162461bcd60e51b815260206004820152601860248201526000805160206130ea833981519152604482015290519081900360640190fd5b600080546111e4906001600160a01b03168c8c6120be565b604080516323b872dd60e01b81523360048201526001600160a01b03831660248201819052604482018d9052915192935090916323b872dd916064808201926020929091908290030181600087803b15801561123f57600080fd5b505af1158015611253573d6000803e3d6000fd5b505050506040513d602081101561126957600080fd5b50506040805163226bf2d160e21b81526001600160a01b03888116600483015282516000938493928616926389afcb44926024808301939282900301818787803b1580156112b657600080fd5b505af11580156112ca573d6000803e3d6000fd5b505050506040513d60408110156112e057600080fd5b508051602090910151909250905060006112fa8e8e612b4e565b509050806001600160a01b03168e6001600160a01b03161461131d578183611320565b82825b90975095508a8710156113645760405162461bcd60e51b815260040180806020018281038252602681526020018061304a6026913960400191505060405180910390fd5b898610156113a35760405162461bcd60e51b8152600401808060200182810382526026815260200180612f6f6026913960400191505060405180910390fd5b505050505097509795505050505050565b6000546001600160a01b031681565b6000546060906109b7906001600160a01b031684846125f5565b60608142811015611423576040805162461bcd60e51b815260206004820152601860248201526000805160206130ea833981519152604482015290519081900360640190fd5b6001546001600160a01b0316868660008161143a57fe5b905060200201356001600160a01b03166001600160a01b031614611493576040805162461bcd60e51b815260206004820152601d602482015260008051602061302a833981519152604482015290519081900360640190fd5b60005460408051602080890282810182019093528882526114dd936001600160a01b0316923492918b918b918291908501908490808284376000920191909152506125f592505050565b915086826001845103815181106114f057fe5b602002602001015110156115355760405162461bcd60e51b815260040180806020018281038252602b815260200180613070602b913960400191505060405180910390fd5b60015482516001600160a01b039091169063d0e30db090849060009061155757fe5b60200260200101516040518263ffffffff1660e01b81526004016000604051808303818588803b15801561158a57600080fd5b505af115801561159e573d6000803e3d6000fd5b5050600154600080546001600160a01b03928316955063a9059cbb94506115ec9350909116908a908a90816115cf57fe5b905060200201356001600160a01b03168a8a6001818110610e2057fe5b846000815181106115f957fe5b60200260200101516040518363ffffffff1660e01b815260040180836001600160a01b03166001600160a01b0316815260200182815260200192505050602060405180830381600087803b15801561165057600080fd5b505af1158015611664573d6000803e3d6000fd5b505050506040513d602081101561167a57600080fd5b505161168257fe5b6116c182878780806020026020016040519081016040528093929190818152602001838360200280828437600092019190915250899250612715915050565b5095945050505050565b60608142811015611711576040805162461bcd60e51b815260206004820152601860248201526000805160206130ea833981519152604482015290519081900360640190fd5b6001546001600160a01b0316868660008161172857fe5b905060200201356001600160a01b03166001600160a01b031614611781576040805162461bcd60e51b815260206004820152601d602482015260008051602061302a833981519152604482015290519081900360640190fd5b60005460408051602080890282810182019093528882526117cb936001600160a01b0316928b92918b918b91829190850190849080828437600092019190915250611f8892505050565b915034826000815181106117db57fe5b602002602001015111156118205760405162461bcd60e51b81526004018080602001828103825260278152602001806130036027913960400191505060405180910390fd5b60015482516001600160a01b039091169063d0e30db090849060009061184257fe5b60200260200101516040518263ffffffff1660e01b81526004016000604051808303818588803b15801561187557600080fd5b505af1158015611889573d6000803e3d6000fd5b5050600154600080546001600160a01b03928316955063a9059cbb94506118ba9350909116908a908a90816115cf57fe5b846000815181106118c757fe5b60200260200101516040518363ffffffff1660e01b815260040180836001600160a01b03166001600160a01b0316815260200182815260200192505050602060405180830381600087803b15801561191e57600080fd5b505af1158015611932573d6000803e3d6000fd5b505050506040513d602081101561194857600080fd5b505161195057fe5b61198f82878780806020026020016040519081016040528093929190818152602001838360200280828437600092019190915250899250612715915050565b8160008151811061199c57fe5b60200260200101513411156116c1576116c133836000815181106119bc57fe5b602002602001015134036124fd565b60008060008342811015611a14576040805162461bcd60e51b815260206004820152601860248201526000805160206130ea833981519152604482015290519081900360640190fd5b611a228c8c8c8c8c8c61217e565b6000805492965090945090611a41906001600160a01b03168e8e6120be565b9050611a4f8d3383886123a0565b611a5b8c3383876123a0565b806001600160a01b0316636a627842886040518263ffffffff1660e01b815260040180826001600160a01b03166001600160a01b03168152602001915050602060405180830381600087803b158015611ab357600080fd5b505af1158015611ac7573d6000803e3d6000fd5b505050506040513d6020811015611add57600080fd5b5051949d939c50939a509198505050505050505050565b60608142811015611b3a576040805162461bcd60e51b815260206004820152601860248201526000805160206130ea833981519152604482015290519081900360640190fd5b6001546001600160a01b031686866000198101818110611b5657fe5b905060200201356001600160a01b03166001600160a01b031614611baf576040805162461bcd60e51b815260206004820152601d602482015260008051602061302a833981519152604482015290519081900360640190fd5b6000546040805160208089028281018201909352888252611bf9936001600160a01b0316928c92918b918b91829190850190849080828437600092019190915250611f8892505050565b91508682600081518110611c0957fe5b60200260200101511115611c4e5760405162461bcd60e51b81526004018080602001828103825260278152602001806130036027913960400191505060405180910390fd5b611c5e86866000818110610dcd57fe5b611c9d82878780806020026020016040519081016040528093929190818152602001838360200280828437600092019190915250309250612715915050565b60015482516001600160a01b0390911690632e1a7d4d9084906000198101908110611cc457fe5b60200260200101516040518263ffffffff1660e01b815260040180828152602001915050600060405180830381600087803b158015611d0257600080fd5b505af1158015611d16573d6000803e3d6000fd5b50505050610e8e8483600185510381518110611d2e57fe5b60200260200101516124fd565b60608142811015611d81576040805162461bcd60e51b815260206004820152601860248201526000805160206130ea833981519152604482015290519081900360640190fd5b6001546001600160a01b031686866000198101818110611d9d57fe5b905060200201356001600160a01b03166001600160a01b031614611df6576040805162461bcd60e51b815260206004820152601d602482015260008051602061302a833981519152604482015290519081900360640190fd5b6000546040805160208089028281018201909352888252611e40936001600160a01b0316928c92918b918b918291908501908490808284376000920191909152506125f592505050565b91508682600184510381518110611e5357fe5b60200260200101511015611c4e5760405162461bcd60e51b815260040180806020018281038252602b815260200180613070602b913960400191505060405180910390fd5b6000808411611ed85760405162461bcd60e51b815260040180806020018281038252602b8152602001806130bf602b913960400191505060405180910390fd5b600083118015611ee85750600082115b611f235760405162461bcd60e51b8152600401808060200182810382526028815260200180612f956028913960400191505060405180910390fd5b6000611f37856103e563ffffffff612c2c16565b90506000611f4b828563ffffffff612c2c16565b90506000611f7183611f65886103e863ffffffff612c2c16565b9063ffffffff612c8516565b9050808281611f7c57fe5b04979650505050505050565b6060600282511015611fe1576040805162461bcd60e51b815260206004820152601e60248201527f556e697377617056324c6962726172793a20494e56414c49445f504154480000604482015290519081900360640190fd5b815160405190808252806020026020018201604052801561200c578160200160208202803883390190505b509050828160018351038151811061202057fe5b60209081029190910101528151600019015b80156120b65760008061206f8786600186038151811061204e57fe5b602002602001015187868151811061206257fe5b6020026020010151612cdf565b9150915061209184848151811061208257fe5b60200260200101518383612dad565b8460018503815181106120a057fe5b6020908102919091010152505060001901612032565b509392505050565b60008060006120cd8585612b4e565b604080516bffffffffffffffffffffffff19606094851b811660208084019190915293851b81166034830152825160288184030181526048830184528051908501206001600160f81b031960688401529a90941b9093166069840152607d8301989098527f2652826efc2ef7232c45fdfeda79e56be4c56078af2a96ed400dfd951679be10609d808401919091528851808403909101815260bd909201909752805196019590952095945050505050565b600080546040805163e6a4390560e01b81526001600160a01b038a811660048301528981166024830152915184938493169163e6a43905916044808301926020929190829003018186803b1580156121d557600080fd5b505afa1580156121e9573d6000803e3d6000fd5b505050506040513d60208110156121ff57600080fd5b50516001600160a01b031614156122975760008054604080516364e329cb60e11b81526001600160a01b038c811660048301528b811660248301529151919092169263c9c6539692604480820193602093909283900390910190829087803b15801561226a57600080fd5b505af115801561227e573d6000803e3d6000fd5b505050506040513d602081101561229457600080fd5b50505b6000805481906122b1906001600160a01b03168b8b612cdf565b915091508160001480156122c3575080155b156122d357879350869250612393565b60006122e0898484612aa2565b905087811161233357858110156123285760405162461bcd60e51b8152600401808060200182810382526026815260200180612f6f6026913960400191505060405180910390fd5b889450925082612391565b6000612340898486612aa2565b90508981111561234c57fe5b8781101561238b5760405162461bcd60e51b815260040180806020018281038252602681526020018061304a6026913960400191505060405180910390fd5b94508793505b505b5050965096945050505050565b604080516001600160a01b0385811660248301528481166044830152606480830185905283518084039091018152608490920183526020820180516001600160e01b03166323b872dd60e01b17815292518251600094606094938a169392918291908083835b602083106124255780518252601f199092019160209182019101612406565b6001836020036101000a0380198251168184511680821785525050505050509050019150506000604051808303816000865af19150503d8060008114612487576040519150601f19603f3d011682016040523d82523d6000602084013e61248c565b606091505b50915091508180156124ba5750805115806124ba57508080602001905160208110156124b757600080fd5b50515b6124f55760405162461bcd60e51b815260040180806020018281038252602481526020018061309b6024913960400191505060405180910390fd5b505050505050565b604080516000808252602082019092526001600160a01b0384169083906040518082805190602001908083835b602083106125495780518252601f19909201916020918201910161252a565b6001836020036101000a03801982511681845116808217855250505050505090500191505060006040518083038185875af1925050503d80600081146125ab576040519150601f19603f3d011682016040523d82523d6000602084013e6125b0565b606091505b50509050806125f05760405162461bcd60e51b8152600401808060200182810382526023815260200180612f276023913960400191505060405180910390fd5b505050565b606060028251101561264e576040805162461bcd60e51b815260206004820152601e60248201527f556e697377617056324c6962726172793a20494e56414c49445f504154480000604482015290519081900360640190fd5b8151604051908082528060200260200182016040528015612679578160200160208202803883390190505b509050828160008151811061268a57fe5b60200260200101818152505060005b60018351038110156120b6576000806126cf878685815181106126b857fe5b602002602001015187866001018151811061206257fe5b915091506126f18484815181106126e257fe5b60200260200101518383611e98565b84846001018151811061270057fe5b60209081029190910101525050600101612699565b60005b60018351038110156129325760008084838151811061273357fe5b602002602001015185846001018151811061274a57fe5b60200260200101519150915060006127628383612b4e565b509050600087856001018151811061277657fe5b60200260200101519050600080836001600160a01b0316866001600160a01b0316146127a4578260006127a8565b6000835b91509150600060028a510388106127bf57886127f0565b6000548a516127f0916001600160a01b03169088908d9060028d019081106127e357fe5b60200260200101516120be565b60005490915061280a906001600160a01b031688886120be565b6001600160a01b031663022c0d9f84848460006040519080825280601f01601f191660200182016040528015612847576020820181803883390190505b506040518563ffffffff1660e01b815260040180858152602001848152602001836001600160a01b03166001600160a01b0316815260200180602001828103825283818151815260200191508051906020019080838360005b838110156128b85781810151838201526020016128a0565b50505050905090810190601f1680156128e55780820380516001836020036101000a031916815260200191505b5095505050505050600060405180830381600087803b15801561290757600080fd5b505af115801561291b573d6000803e3d6000fd5b505060019099019850612718975050505050505050565b50505050565b604080516001600160a01b038481166024830152604480830185905283518084039091018152606490920183526020820180516001600160e01b031663a9059cbb60e01b178152925182516000946060949389169392918291908083835b602083106129b55780518252601f199092019160209182019101612996565b6001836020036101000a0380198251168184511680821785525050505050509050019150506000604051808303816000865af19150503d8060008114612a17576040519150601f19603f3d011682016040523d82523d6000602084013e612a1c565b606091505b5091509150818015612a4a575080511580612a4a5750808060200190516020811015612a4757600080fd5b50515b612a9b576040805162461bcd60e51b815260206004820152601f60248201527f5472616e7366657248656c7065723a205452414e534645525f4641494c454400604482015290519081900360640190fd5b5050505050565b6000808411612ae25760405162461bcd60e51b8152600401808060200182810382526025815260200180612fde6025913960400191505060405180910390fd5b600083118015612af25750600082115b612b2d5760405162461bcd60e51b8152600401808060200182810382526028815260200180612f956028913960400191505060405180910390fd5b82612b3e858463ffffffff612c2c16565b81612b4557fe5b04949350505050565b600080826001600160a01b0316846001600160a01b03161415612ba25760405162461bcd60e51b8152600401808060200182810382526025815260200180612f4a6025913960400191505060405180910390fd5b826001600160a01b0316846001600160a01b031610612bc2578284612bc5565b83835b90925090506001600160a01b038216612c25576040805162461bcd60e51b815260206004820152601e60248201527f556e697377617056324c6962726172793a205a45524f5f414444524553530000604482015290519081900360640190fd5b9250929050565b600082612c3b575060006109ba565b82820282848281612c4857fe5b04146109b75760405162461bcd60e51b8152600401808060200182810382526021815260200180612fbd6021913960400191505060405180910390fd5b6000828201838110156109b7576040805162461bcd60e51b815260206004820152601b60248201527f536166654d6174683a206164646974696f6e206f766572666c6f770000000000604482015290519081900360640190fd5b6000806000612cee8585612b4e565b509050600080612cff8888886120be565b6001600160a01b0316630902f1ac6040518163ffffffff1660e01b815260040160606040518083038186803b158015612d3757600080fd5b505afa158015612d4b573d6000803e3d6000fd5b505050506040513d6060811015612d6157600080fd5b5080516020909101516dffffffffffffffffffffffffffff91821693501690506001600160a01b0387811690841614612d9b578082612d9e565b81815b90999098509650505050505050565b6000808411612ded5760405162461bcd60e51b815260040180806020018281038252602c815260200180612efb602c913960400191505060405180910390fd5b600083118015612dfd5750600082115b612e385760405162461bcd60e51b8152600401808060200182810382526028815260200180612f956028913960400191505060405180910390fd5b6000612e5c6103e8612e50868863ffffffff612c2c16565b9063ffffffff612c2c16565b90506000612e766103e5612e50868963ffffffff612e9d16565b9050612e936001828481612e8657fe5b049063ffffffff612c8516565b9695505050505050565b600082821115612ef4576040805162461bcd60e51b815260206004820152601e60248201527f536166654d6174683a207375627472616374696f6e206f766572666c6f770000604482015290519081900360640190fd5b5090039056fe556e697377617056324c6962726172793a20494e53554646494349454e545f4f55545055545f414d4f554e545472616e7366657248656c7065723a204154505f5452414e534645525f4641494c4544556e697377617056324c6962726172793a204944454e544943414c5f414444524553534553556e69737761705632526f757465723a20494e53554646494349454e545f425f414d4f554e54556e697377617056324c6962726172793a20494e53554646494349454e545f4c4951554944495459536166654d6174683a206d756c7469706c69636174696f6e206f766572666c6f77556e697377617056324c6962726172793a20494e53554646494349454e545f414d4f554e54556e69737761705632526f757465723a204558434553534956455f494e5055545f414d4f554e54556e69737761705632526f757465723a20494e56414c49445f50415448000000556e69737761705632526f757465723a20494e53554646494349454e545f415f414d4f554e54556e69737761705632526f757465723a20494e53554646494349454e545f4f55545055545f414d4f554e545472616e7366657248656c7065723a205452414e534645525f46524f4d5f4641494c4544556e697377617056324c6962726172793a20494e53554646494349454e545f494e5055545f414d4f554e54556e69737761705632526f757465723a20455850495245440000000000000000a265627a7a723158201c447951751b48bf63cad0bd1ab844afc62ea95912d661ffb581841797046a9e64736f6c63430005110032",
  "source": "pragma solidity ^0.5.17;\n\nimport './libraries/TransferHelper.sol';\nimport './libraries/UniswapV2Library.sol';\n\nimport './interfaces/IUniswapV2Router02.sol';\nimport './interfaces/IUniswapV2Factory.sol';\nimport './interfaces/IERC20.sol';\nimport './interfaces/IWATP.sol';\n\ncontract UniswapV2Router02 is IUniswapV2Router02 {\n    //watp\n    address public factory;\n    address public WATP;\n    //:\n    modifier ensure(uint256 deadline) {\n        // solium-disable-next-line security/no-block-members\n        require(deadline >= block.timestamp, \"UniswapV2Router: EXPIRED\");\n        _;\n    }\n\n    //:watp\n    constructor(address _factory, address _WATP) public {\n        factory = _factory;\n        WATP = _WATP;\n    }\n\n    //\n    function() external payable {\n        //watp\n        assert(msg.sender == WATP); // only accept ATP via fallback from the WATP contract\n    }\n\n    // **** ADD LIQUIDITY ****\n    /**\n     * @dev \n     * @param tokenA tokenA\n     * @param tokenB tokenB\n     * @param amountADesired A\n     * @param amountBDesired B\n     * @param amountAMin A\n     * @param amountBMin B\n     * @return amountA   A\n     * @return amountB   B\n     */\n    function _addLiquidity(\n        address tokenA,\n        address tokenB,\n        uint256 amountADesired,\n        uint256 amountBDesired,\n        uint256 amountAMin,\n        uint256 amountBMin\n    ) private returns (uint256 amountA, uint256 amountB) {\n        // create the pair if it doesn't exist yet\n        //,\n        if (IUniswapV2Factory(factory).getPair(tokenA, tokenB) == address(0)) {\n            IUniswapV2Factory(factory).createPair(tokenA, tokenB);\n        }\n        //reserve{A,B}\n        (uint256 reserveA, uint256 reserveB) = UniswapV2Library.getReserves(\n            factory,\n            tokenA,\n            tokenB\n        );\n        //reserve{A,B}==0\n        if (reserveA == 0 && reserveB == 0) {\n            //amount{A,B} = A,B\n            (amountA, amountB) = (amountADesired, amountBDesired);\n        } else {\n            //B = A * B / A\n            uint256 amountBOptimal = UniswapV2Library.quote(\n                amountADesired,\n                reserveA,\n                reserveB\n            );\n            //B <= B\n            if (amountBOptimal <= amountBDesired) {\n                //B >= B\n                require(\n                    amountBOptimal >= amountBMin,\n                    \"UniswapV2Router: INSUFFICIENT_B_AMOUNT\"\n                );\n                //amount{A,B} = A, B\n                (amountA, amountB) = (amountADesired, amountBOptimal);\n            } else {\n                //A = A * A / B\n                uint256 amountAOptimal = UniswapV2Library.quote(\n                    amountBDesired,\n                    reserveB,\n                    reserveA\n                );\n                //A <= A\n                assert(amountAOptimal <= amountADesired);\n                //A >= A\n                require(\n                    amountAOptimal >= amountAMin,\n                    \"UniswapV2Router: INSUFFICIENT_A_AMOUNT\"\n                );\n                //amount{A,B} = A, B\n                (amountA, amountB) = (amountAOptimal, amountBDesired);\n            }\n        }\n    }\n\n    /**\n     * @dev \n     * @param tokenA tokenA\n     * @param tokenB tokenB\n     * @param amountADesired A\n     * @param amountBDesired B\n     * @param amountAMin A\n     * @param amountBMin B\n     * @param to to\n     * @param deadline \n     * @return amountA   A\n     * @return amountB   B\n     * @return liquidity   \n     */\n    function addLiquidity(\n        address tokenA,\n        address tokenB,\n        uint256 amountADesired,\n        uint256 amountBDesired,\n        uint256 amountAMin,\n        uint256 amountBMin,\n        address to,\n        uint256 deadline\n    )\n        external\n        ensure(deadline)\n        returns (\n            uint256 amountA,\n            uint256 amountB,\n            uint256 liquidity\n        )\n    {\n        //A,B\n        (amountA, amountB) = _addLiquidity(\n            tokenA,\n            tokenB,\n            amountADesired,\n            amountBDesired,\n            amountAMin,\n            amountBMin\n        );\n        //TokenA,TokenB,`pair`\n        address pair = UniswapV2Library.pairFor(factory, tokenA, tokenB);\n        //amountAtokenAmsg.senderpair\n        TransferHelper.safeTransferFrom(tokenA, msg.sender, pair, amountA);\n        //amountBtokenBmsg.senderpair\n        TransferHelper.safeTransferFrom(tokenB, msg.sender, pair, amountB);\n        // = pairto\n        liquidity = IUniswapV2Pair(pair).mint(to);\n    }\n\n    /**\n     * @dev ATP\n     * @param token token\n     * @param amountTokenDesired Token\n     * @param amountTokenMin Token\n     * @param amountATPMin ATP\n     * @param to to\n     * @param deadline \n     * @return amountToken   Token\n     * @return amountATP   ATP\n     * @return liquidity   \n     */\n    function addLiquidityATP(\n        address token,\n        uint256 amountTokenDesired,\n        uint256 amountTokenMin,\n        uint256 amountATPMin,\n        address to,\n        uint256 deadline\n    )\n        external\n        payable\n        ensure(deadline)\n        returns (\n            uint256 amountToken,\n            uint256 amountATP,\n            uint256 liquidity\n        )\n    {\n        //Token,ATP\n        (amountToken, amountATP) = _addLiquidity(\n            token,\n            WATP,\n            amountTokenDesired,\n            msg.value,\n            amountTokenMin,\n            amountATPMin\n        );\n        //Token,WATP,`pair`\n        address pair = UniswapV2Library.pairFor(factory, token, WATP);\n        //`Token`tokenmsg.sender`pair`\n        TransferHelper.safeTransferFrom(token, msg.sender, pair, amountToken);\n        //`WATP``ATP`\n        IWATP(WATP).deposit.value(amountATP)();\n        //`ATP``WATP`token`pair`\n        assert(IWATP(WATP).transfer(pair, amountATP));\n        // = pair`to`\n        liquidity = IUniswapV2Pair(pair).mint(to);\n        //``>`ATP` ``-`ATP`\n        if (msg.value > amountATP)\n            TransferHelper.safeTransferATP(msg.sender, msg.value - amountATP); // refund dust atp, if any\n    }\n\n    // **** REMOVE LIQUIDITY ****\n    /**\n     * @dev \n     * @param tokenA tokenA\n     * @param tokenB tokenB\n     * @param liquidity \n     * @param amountAMin A\n     * @param amountBMin B\n     * @param to to\n     * @param deadline \n     * @return amountA   A\n     * @return amountB   B\n     */\n    function removeLiquidity(\n        address tokenA,\n        address tokenB,\n        uint256 liquidity,\n        uint256 amountAMin,\n        uint256 amountBMin,\n        address to,\n        uint256 deadline\n    ) public ensure(deadline) returns (uint256 amountA, uint256 amountB) {\n        //TokenA,TokenBCREATE2\n        address pair = UniswapV2Library.pairFor(factory, tokenA, tokenB);\n        //pair()\n        IUniswapV2Pair(pair).transferFrom(msg.sender, pair, liquidity); // send liquidity to pair\n        //pair,0,1tokento\n        (uint256 amount0, uint256 amount1) = IUniswapV2Pair(pair).burn(to);\n        //tokenA,tokenB\n        (address token0, ) = UniswapV2Library.sortTokens(tokenA, tokenB);\n        //tokenAB\n        (amountA, amountB) = tokenA == token0\n            ? (amount0, amount1)\n            : (amount1, amount0);\n        //ABAB\n        require(\n            amountA >= amountAMin,\n            \"UniswapV2Router: INSUFFICIENT_A_AMOUNT\"\n        );\n        require(\n            amountB >= amountBMin,\n            \"UniswapV2Router: INSUFFICIENT_B_AMOUNT\"\n        );\n    }\n\n    /**\n     * @dev ATP\n     * @param token token\n     * @param liquidity \n     * @param amountTokenMin token\n     * @param amountATPMin ATP\n     * @param to to\n     * @param deadline \n     * @return amountToken   token\n     * @return amountATP   ATP\n     */\n    function removeLiquidityATP(\n        address token,\n        uint256 liquidity,\n        uint256 amountTokenMin,\n        uint256 amountATPMin,\n        address to,\n        uint256 deadline\n    ) public ensure(deadline) returns (uint256 amountToken, uint256 amountATP) {\n        //(token,ATP) = (token,WATP,,token,ATP,,)\n        (amountToken, amountATP) = removeLiquidity(\n            token,\n            WATP,\n            liquidity,\n            amountTokenMin,\n            amountATPMin,\n            address(this),\n            deadline\n        );\n        //tokentokento\n        TransferHelper.safeTransfer(token, to, amountToken);\n        //WATPATP\n        IWATP(WATP).withdraw(amountATP);\n        //ATPATPto\n        TransferHelper.safeTransferATP(to, amountATP);\n    }\n\n    /**\n     * @dev \n     * @param tokenA tokenA\n     * @param tokenB tokenB\n     * @param liquidity \n     * @param amountAMin A\n     * @param amountBMin B\n     * @param to to\n     * @param deadline \n     * @param approveMax \n     * @param v v\n     * @param r r\n     * @param s s\n     * @return amountA   A\n     * @return amountB   B\n     */\n    function removeLiquidityWithPermit(\n        address tokenA,\n        address tokenB,\n        uint256 liquidity,\n        uint256 amountAMin,\n        uint256 amountBMin,\n        address to,\n        uint256 deadline,\n        bool approveMax,\n        uint8 v,\n        bytes32 r,\n        bytes32 s\n    ) external returns (uint256 amountA, uint256 amountB) {\n        //TokenA,TokenBCREATE2\n        address pair = UniswapV2Library.pairFor(factory, tokenA, tokenB);\n        //,valueuint256,\n        uint256 value = approveMax ? uint256(-1) : liquidity;\n        //pair(,,,,v,r,s)\n        IUniswapV2Pair(pair).permit(\n            msg.sender,\n            address(this),\n            value,\n            deadline,\n            v,\n            r,\n            s\n        );\n        //(A,B) = (tokenA,tokenB,,A,B,to,)\n        (amountA, amountB) = removeLiquidity(\n            tokenA,\n            tokenB,\n            liquidity,\n            amountAMin,\n            amountBMin,\n            to,\n            deadline\n        );\n    }\n\n    /**\n     * @dev ATP\n     * @param token token\n     * @param liquidity \n     * @param amountTokenMin token\n     * @param amountATPMin ATP\n     * @param to to\n     * @param deadline \n     * @param approveMax \n     * @param v v\n     * @param r r\n     * @param s s\n     * @return amountToken   token\n     * @return amountATP   ATP\n     */\n    function removeLiquidityATPWithPermit(\n        address token,\n        uint256 liquidity,\n        uint256 amountTokenMin,\n        uint256 amountATPMin,\n        address to,\n        uint256 deadline,\n        bool approveMax,\n        uint8 v,\n        bytes32 r,\n        bytes32 s\n    ) external returns (uint256 amountToken, uint256 amountATP) {\n        //Token,WATPCREATE2\n        address pair = UniswapV2Library.pairFor(factory, token, WATP);\n        //,valueuint256,\n        uint256 value = approveMax ? uint256(-1) : liquidity;\n        //pair(,,,,v,r,s)\n        IUniswapV2Pair(pair).permit(\n            msg.sender,\n            address(this),\n            value,\n            deadline,\n            v,\n            r,\n            s\n        );\n        //(token,ATP) = ATP(token,,token,ATP,to,)\n        (amountToken, amountATP) = removeLiquidityATP(\n            token,\n            liquidity,\n            amountTokenMin,\n            amountATPMin,\n            to,\n            deadline\n        );\n    }\n\n    // **** SWAP ****\n    /**\n     * @dev \n     * @notice \n     * @param amounts \n     * @param path \n     * @param _to to\n     */\n    // requires the initial amount to have already been sent to the first pair\n    function _swap(\n        uint256[] memory amounts,\n        address[] memory path,\n        address _to\n    ) private {\n        //\n        for (uint256 i; i < path.length - 1; i++) {\n            //(,) = (,)\n            (address input, address output) = (path[i], path[i + 1]);\n            //token0 = (,)\n            (address token0, ) = UniswapV2Library.sortTokens(input, output);\n            // = \n            uint256 amountOut = amounts[i + 1];\n            //(0,1) = ==token0 ? (0,) : (,0)\n            (uint256 amount0Out, uint256 amount1Out) = input == token0\n                ? (uint256(0), amountOut)\n                : (amountOut, uint256(0));\n            //to = i<-2 ? (,)pair : to\n            address to = i < path.length - 2\n                ? UniswapV2Library.pairFor(factory, output, path[i + 2])\n                : _to;\n            //(,)pair(0,1,to,0x00)\n            IUniswapV2Pair(UniswapV2Library.pairFor(factory, input, output))\n                .swap(amount0Out, amount1Out, to, new bytes(0));\n        }\n    }\n\n    /**\n     * @dev tokentoken\n     * @param amountIn \n     * @param amountOutMin \n     * @param path \n     * @param to to\n     * @param deadline \n     * @return amounts[]  \n     */\n    function swapExactTokensForTokens(\n        uint256 amountIn,\n        uint256 amountOutMin,\n        address[] calldata path,\n        address to,\n        uint256 deadline\n    ) external ensure(deadline) returns (uint256[] memory amounts) {\n        //  (( * 997 * Out) / (In * 1000 +  * 997))\n        amounts = UniswapV2Library.getAmountsOut(factory, amountIn, path);\n        //>=\n        require(\n            amounts[amounts.length - 1] >= amountOutMin,\n            \"UniswapV2Router: INSUFFICIENT_OUTPUT_AMOUNT\"\n        );\n        //[0][0]token0,1pair\n        TransferHelper.safeTransferFrom(\n            path[0],\n            msg.sender,\n            UniswapV2Library.pairFor(factory, path[0], path[1]),\n            amounts[0]\n        );\n        //(,,to)\n        _swap(amounts, path, to);\n    }\n\n    /**\n     * @dev tokentoken\n     * @param amountOut \n     * @param amountInMax \n     * @param path \n     * @param to to\n     * @param deadline \n     * @return amounts[]  \n     */\n    function swapTokensForExactTokens(\n        uint256 amountOut,\n        uint256 amountInMax,\n        address[] calldata path,\n        address to,\n        uint256 deadline\n    ) external ensure(deadline) returns (uint256[] memory amounts) {\n        //  ((In * Out * 1000) / (Out -  * 997) + 1)\n        amounts = UniswapV2Library.getAmountsIn(factory, amountOut, path);\n        //<=\n        require(\n            amounts[0] <= amountInMax,\n            \"UniswapV2Router: EXCESSIVE_INPUT_AMOUNT\"\n        );\n        //[0][0]token0,1pair\n        TransferHelper.safeTransferFrom(\n            path[0],\n            msg.sender,\n            UniswapV2Library.pairFor(factory, path[0], path[1]),\n            amounts[0]\n        );\n        //(,,to)\n        _swap(amounts, path, to);\n    }\n\n    /**\n     * @dev ATPtoken\n     * @param amountOutMin \n     * @param path \n     * @param to to\n     * @param deadline \n     * @return amounts[]  \n     */\n    function swapExactATPForTokens(\n        uint256 amountOutMin,\n        address[] calldata path,\n        address to,\n        uint256 deadline\n    ) external payable ensure(deadline) returns (uint256[] memory amounts) {\n        //WATP\n        require(path[0] == WATP, \"UniswapV2Router: INVALID_PATH\");\n        //  ((msg.value * 997 * Out) / (In * 1000 + msg.value * 997))\n        amounts = UniswapV2Library.getAmountsOut(factory, msg.value, path);\n        //>=\n        require(\n            amounts[amounts.length - 1] >= amountOutMin,\n            \"UniswapV2Router: INSUFFICIENT_OUTPUT_AMOUNT\"\n        );\n        //[0]ATPWATP\n        IWATP(WATP).deposit.value(amounts[0])();\n        //[0]WATP(0,1)pair\n        assert(\n            IWATP(WATP).transfer(\n                UniswapV2Library.pairFor(factory, path[0], path[1]),\n                amounts[0]\n            )\n        );\n        //(,,to)\n        _swap(amounts, path, to);\n    }\n\n    /**\n     * @dev tokenATP\n     * @param amountOut \n     * @param amountInMax \n     * @param path \n     * @param to to\n     * @param deadline \n     * @return amounts[]  \n     */\n    function swapTokensForExactATP(\n        uint256 amountOut,\n        uint256 amountInMax,\n        address[] calldata path,\n        address to,\n        uint256 deadline\n    ) external ensure(deadline) returns (uint256[] memory amounts) {\n        //WATP\n        require(path[path.length - 1] == WATP, \"UniswapV2Router: INVALID_PATH\");\n        //  ((In * Out * 1000) / (Out -  * 997) + 1)\n        amounts = UniswapV2Library.getAmountsIn(factory, amountOut, path);\n        //<=\n        require(\n            amounts[0] <= amountInMax,\n            \"UniswapV2Router: EXCESSIVE_INPUT_AMOUNT\"\n        );\n        //[0][0]token0,1pair\n        TransferHelper.safeTransferFrom(\n            path[0],\n            msg.sender,\n            UniswapV2Library.pairFor(factory, path[0], path[1]),\n            amounts[0]\n        );\n        //(,,)\n        _swap(amounts, path, address(this));\n        //WATPATP\n        IWATP(WATP).withdraw(amounts[amounts.length - 1]);\n        //ATPto\n        TransferHelper.safeTransferATP(to, amounts[amounts.length - 1]);\n    }\n\n    /**\n     * @dev tokenATP\n     * @param amountIn \n     * @param amountOutMin \n     * @param path \n     * @param to to\n     * @param deadline \n     * @return amounts[]  \n     */\n    function swapExactTokensForATP(\n        uint256 amountIn,\n        uint256 amountOutMin,\n        address[] calldata path,\n        address to,\n        uint256 deadline\n    ) external ensure(deadline) returns (uint256[] memory amounts) {\n        //WATP\n        require(path[path.length - 1] == WATP, \"UniswapV2Router: INVALID_PATH\");\n        //  (( * 997 * Out) / (In * 1000 +  * 997))\n        amounts = UniswapV2Library.getAmountsOut(factory, amountIn, path);\n        //>=\n        require(\n            amounts[amounts.length - 1] >= amountOutMin,\n            \"UniswapV2Router: INSUFFICIENT_OUTPUT_AMOUNT\"\n        );\n        //[0][0]token0,1pair\n        TransferHelper.safeTransferFrom(\n            path[0],\n            msg.sender,\n            UniswapV2Library.pairFor(factory, path[0], path[1]),\n            amounts[0]\n        );\n        //(,,)\n        _swap(amounts, path, address(this));\n        //WATPATP\n        IWATP(WATP).withdraw(amounts[amounts.length - 1]);\n        //ATPto\n        TransferHelper.safeTransferATP(to, amounts[amounts.length - 1]);\n    }\n\n    /**\n     * @dev ATPtoken\n     * @param amountOut \n     * @param path \n     * @param to to\n     * @param deadline \n     * @return amounts[]  \n     */\n    function swapATPForExactTokens(\n        uint256 amountOut,\n        address[] calldata path,\n        address to,\n        uint256 deadline\n    ) external payable ensure(deadline) returns (uint256[] memory amounts) {\n        //WATP\n        require(path[0] == WATP, \"UniswapV2Router: INVALID_PATH\");\n        //  ((In * Out * 1000) / (Out -  * 997) + 1)\n        amounts = UniswapV2Library.getAmountsIn(factory, amountOut, path);\n        //<=msg.value\n        require(\n            amounts[0] <= msg.value,\n            \"UniswapV2Router: EXCESSIVE_INPUT_AMOUNT\"\n        );\n        //[0]ATPWATP\n        IWATP(WATP).deposit.value(amounts[0])();\n        //[0]WATP(0,1)pair\n        assert(\n            IWATP(WATP).transfer(\n                UniswapV2Library.pairFor(factory, path[0], path[1]),\n                amounts[0]\n            )\n        );\n        //(,,to)\n        _swap(amounts, path, to);\n        //``>`[0]` ``-`[0]`\n        if (msg.value > amounts[0])\n            TransferHelper.safeTransferATP(msg.sender, msg.value - amounts[0]); // refund dust atp, if any\n    }\n\n    function quote(\n        uint256 amountA,\n        uint256 reserveA,\n        uint256 reserveB\n    ) public pure returns (uint256 amountB) {\n        return UniswapV2Library.quote(amountA, reserveA, reserveB);\n    }\n\n    // **** LIBRARY FUNCTIONS ****\n    function getAmountOut(\n        uint256 amountIn,\n        uint256 reserveIn,\n        uint256 reserveOut\n    ) public pure returns (uint256 amountOut) {\n        return UniswapV2Library.getAmountOut(amountIn, reserveIn, reserveOut);\n    }\n\n    function getAmountIn(\n        uint256 amountOut,\n        uint256 reserveIn,\n        uint256 reserveOut\n    ) public pure returns (uint256 amountIn) {\n        return UniswapV2Library.getAmountOut(amountOut, reserveIn, reserveOut);\n    }\n\n    function getAmountsOut(uint256 amountIn, address[] memory path)\n        public\n        view\n        returns (uint256[] memory amounts)\n    {\n        return UniswapV2Library.getAmountsOut(factory, amountIn, path);\n    }\n\n    function getAmountsIn(uint256 amountOut, address[] memory path)\n        public\n        view\n        returns (uint256[] memory amounts)\n    {\n        return UniswapV2Library.getAmountsIn(factory, amountOut, path);\n    }\n}\n",
  "sourcePath": "/Users/fujianlian/Desktop/alaya-uniswap-v2-contracts/contracts/UniswapV2Router02.sol",
  "compiler": {
    "name": "solc",
    "version": "0.5.17+commit.84979a1f.Emscripten.clang"
  },
  "schemaVersion": "3.0.19",
  "updatedAt": "2021-11-24T09:15:47.257Z",
  "networkType": "ethereum",
  "devdoc": {
    "methods": {
      "addLiquidity(address,address,uint256,uint256,uint256,uint256,address,uint256)": {
        "details": "",
        "params": {
          "amountADesired": "A",
          "amountAMin": "A",
          "amountBDesired": "B",
          "amountBMin": "B",
          "deadline": "",
          "to": "to",
          "tokenA": "tokenA",
          "tokenB": "tokenB"
        },
        "return": "amountA   AamountB   Bliquidity   "
      },
      "addLiquidityATP(address,uint256,uint256,uint256,address,uint256)": {
        "details": "ATP",
        "params": {
          "amountATPMin": "ATP",
          "amountTokenDesired": "Token",
          "amountTokenMin": "Token",
          "deadline": "",
          "to": "to",
          "token": "token"
        },
        "return": "amountToken   TokenamountATP   ATPliquidity   "
      },
      "removeLiquidity(address,address,uint256,uint256,uint256,address,uint256)": {
        "details": "",
        "params": {
          "amountAMin": "A",
          "amountBMin": "B",
          "deadline": "",
          "liquidity": "",
          "to": "to",
          "tokenA": "tokenA",
          "tokenB": "tokenB"
        },
        "return": "amountA   AamountB   B"
      },
      "removeLiquidityATP(address,uint256,uint256,uint256,address,uint256)": {
        "details": "ATP",
        "params": {
          "amountATPMin": "ATP",
          "amountTokenMin": "token",
          "deadline": "",
          "liquidity": "",
          "to": "to",
          "token": "token"
        },
        "return": "amountToken   tokenamountATP   ATP"
      },
      "removeLiquidityATPWithPermit(address,uint256,uint256,uint256,address,uint256,bool,uint8,bytes32,bytes32)": {
        "details": "ATP",
        "params": {
          "amountATPMin": "ATP",
          "amountTokenMin": "token",
          "approveMax": "",
          "deadline": "",
          "liquidity": "",
          "r": "r",
          "s": "s",
          "to": "to",
          "token": "token",
          "v": "v"
        },
        "return": "amountToken   tokenamountATP   ATP"
      },
      "removeLiquidityWithPermit(address,address,uint256,uint256,uint256,address,uint256,bool,uint8,bytes32,bytes32)": {
        "details": "",
        "params": {
          "amountAMin": "A",
          "amountBMin": "B",
          "approveMax": "",
          "deadline": "",
          "liquidity": "",
          "r": "r",
          "s": "s",
          "to": "to",
          "tokenA": "tokenA",
          "tokenB": "tokenB",
          "v": "v"
        },
        "return": "amountA   AamountB   B"
      },
      "swapATPForExactTokens(uint256,address[],address,uint256)": {
        "details": "ATPtoken",
        "params": {
          "amountOut": "",
          "deadline": "",
          "path": "",
          "to": "to"
        },
        "return": "amounts[]  "
      },
      "swapExactATPForTokens(uint256,address[],address,uint256)": {
        "details": "ATPtoken",
        "params": {
          "amountOutMin": "",
          "deadline": "",
          "path": "",
          "to": "to"
        },
        "return": "amounts[]  "
      },
      "swapExactTokensForATP(uint256,uint256,address[],address,uint256)": {
        "details": "tokenATP",
        "params": {
          "amountIn": "",
          "amountOutMin": "",
          "deadline": "",
          "path": "",
          "to": "to"
        },
        "return": "amounts[]  "
      },
      "swapExactTokensForTokens(uint256,uint256,address[],address,uint256)": {
        "details": "tokentoken",
        "params": {
          "amountIn": "",
          "amountOutMin": "",
          "deadline": "",
          "path": "",
          "to": "to"
        },
        "return": "amounts[]  "
      },
      "swapTokensForExactATP(uint256,uint256,address[],address,uint256)": {
        "details": "tokenATP",
        "params": {
          "amountInMax": "",
          "amountOut": "",
          "deadline": "",
          "path": "",
          "to": "to"
        },
        "return": "amounts[]  "
      },
      "swapTokensForExactTokens(uint256,uint256,address[],address,uint256)": {
        "details": "tokentoken",
        "params": {
          "amountInMax": "",
          "amountOut": "",
          "deadline": "",
          "path": "",
          "to": "to"
        },
        "return": "amounts[]  "
      }
    }
  },
  "userdoc": {
    "methods": {}
  }
}